{
  "contractName": "IdentityManagement",
  "abi": [
    {
      "inputs": [],
      "payable": false,
      "stateMutability": "nonpayable",
      "type": "constructor"
    },
    {
      "constant": true,
      "inputs": [],
      "name": "ContractOwner",
      "outputs": [
        {
          "internalType": "address",
          "name": "",
          "type": "address"
        }
      ],
      "payable": false,
      "stateMutability": "view",
      "type": "function"
    },
    {
      "constant": true,
      "inputs": [
        {
          "internalType": "address",
          "name": "",
          "type": "address"
        }
      ],
      "name": "checkFI",
      "outputs": [
        {
          "internalType": "string",
          "name": "",
          "type": "string"
        }
      ],
      "payable": false,
      "stateMutability": "view",
      "type": "function"
    },
    {
      "constant": false,
      "inputs": [
        {
          "internalType": "address",
          "name": "FIaddress",
          "type": "address"
        },
        {
          "internalType": "string",
          "name": "FIname",
          "type": "string"
        }
      ],
      "name": "addFI",
      "outputs": [],
      "payable": false,
      "stateMutability": "nonpayable",
      "type": "function"
    },
    {
      "constant": false,
      "inputs": [
        {
          "internalType": "address",
          "name": "UserAddress",
          "type": "address"
        },
        {
          "internalType": "string",
          "name": "FullName",
          "type": "string"
        },
        {
          "internalType": "string",
          "name": "EmailID",
          "type": "string"
        },
        {
          "internalType": "uint256",
          "name": "MobileNo",
          "type": "uint256"
        }
      ],
      "name": "AddUser",
      "outputs": [],
      "payable": false,
      "stateMutability": "nonpayable",
      "type": "function"
    },
    {
      "constant": false,
      "inputs": [
        {
          "internalType": "address",
          "name": "UserAddress",
          "type": "address"
        },
        {
          "internalType": "string",
          "name": "DL_No",
          "type": "string"
        },
        {
          "internalType": "string",
          "name": "DL_Name",
          "type": "string"
        },
        {
          "internalType": "string",
          "name": "DL_DOB",
          "type": "string"
        },
        {
          "internalType": "string",
          "name": "DL_Hash",
          "type": "string"
        },
        {
          "internalType": "string",
          "name": "DL_Address",
          "type": "string"
        }
      ],
      "name": "AddUserDL",
      "outputs": [],
      "payable": false,
      "stateMutability": "nonpayable",
      "type": "function"
    },
    {
      "constant": false,
      "inputs": [
        {
          "internalType": "address",
          "name": "UserAddress",
          "type": "address"
        },
        {
          "internalType": "string",
          "name": "RequestedBy",
          "type": "string"
        },
        {
          "internalType": "uint256",
          "name": "DL_No",
          "type": "uint256"
        },
        {
          "internalType": "uint256",
          "name": "DL_Name",
          "type": "uint256"
        },
        {
          "internalType": "uint256",
          "name": "DL_DOB",
          "type": "uint256"
        },
        {
          "internalType": "uint256",
          "name": "DL_Hash",
          "type": "uint256"
        },
        {
          "internalType": "uint256",
          "name": "DL_Address",
          "type": "uint256"
        },
        {
          "internalType": "uint256",
          "name": "DL_OverAll_Status",
          "type": "uint256"
        }
      ],
      "name": "AddDLRequest",
      "outputs": [],
      "payable": false,
      "stateMutability": "nonpayable",
      "type": "function"
    },
    {
      "constant": false,
      "inputs": [
        {
          "internalType": "address",
          "name": "UserAddress",
          "type": "address"
        }
      ],
      "name": "ViewDLRequestLength",
      "outputs": [
        {
          "internalType": "uint256",
          "name": "",
          "type": "uint256"
        }
      ],
      "payable": false,
      "stateMutability": "nonpayable",
      "type": "function"
    },
    {
      "constant": false,
      "inputs": [
        {
          "internalType": "address",
          "name": "UserAddress",
          "type": "address"
        },
        {
          "internalType": "uint256",
          "name": "UserIndex",
          "type": "uint256"
        }
      ],
      "name": "viewUser",
      "outputs": [
        {
          "internalType": "string",
          "name": "FullName",
          "type": "string"
        },
        {
          "internalType": "string",
          "name": "EmailID",
          "type": "string"
        },
        {
          "internalType": "uint256",
          "name": "MobileNo",
          "type": "uint256"
        }
      ],
      "payable": false,
      "stateMutability": "nonpayable",
      "type": "function"
    }
  ],
  "bytecode": "0x608060405234801561001057600080fd5b50336000806101000a81548173ffffffffffffffffffffffffffffffffffffffff021916908373ffffffffffffffffffffffffffffffffffffffff1602179055506111a5806100606000396000f3fe608060405234801561001057600080fd5b50600436106100885760003560e01c80635a63fbc91161005b5780635a63fbc9146106d8578063720dd1c814610722578063af3f32901461077a578063fe8f2a75146108b457610088565b80632771be551461008d5780633100e3251461020957806331a2edb9146102e4578063400547d4146103a1575b600080fd5b610207600480360360808110156100a357600080fd5b81019080803573ffffffffffffffffffffffffffffffffffffffff169060200190929190803590602001906401000000008111156100e057600080fd5b8201836020820111156100f257600080fd5b8035906020019184600183028401116401000000008311171561011457600080fd5b91908080601f016020809104026020016040519081016040528093929190818152602001838380828437600081840152601f19601f8201169050808301925050505050505091929192908035906020019064010000000081111561017757600080fd5b82018360208201111561018957600080fd5b803590602001918460018302840111640100000000831117156101ab57600080fd5b91908080601f016020809104026020016040519081016040528093929190818152602001838380828437600081840152601f19601f820116905080830192505050505050509192919290803590602001909291905050506109cc565b005b6102e26004803603604081101561021f57600080fd5b81019080803573ffffffffffffffffffffffffffffffffffffffff1690602001909291908035906020019064010000000081111561025c57600080fd5b82018360208201111561026e57600080fd5b8035906020019184600183028401116401000000008311171561029057600080fd5b91908080601f016020809104026020016040519081016040528093929190818152602001838380828437600081840152601f19601f820116905080830192505050505050509192919290505050610a9e565b005b610326600480360360208110156102fa57600080fd5b81019080803573ffffffffffffffffffffffffffffffffffffffff169060200190929190505050610af6565b6040518080602001828103825283818151815260200191508051906020019080838360005b8381101561036657808201518184015260208101905061034b565b50505050905090810190601f1680156103935780820380516001836020036101000a031916815260200191505b509250505060405180910390f35b6106d6600480360360c08110156103b757600080fd5b81019080803573ffffffffffffffffffffffffffffffffffffffff169060200190929190803590602001906401000000008111156103f457600080fd5b82018360208201111561040657600080fd5b8035906020019184600183028401116401000000008311171561042857600080fd5b91908080601f016020809104026020016040519081016040528093929190818152602001838380828437600081840152601f19601f8201169050808301925050505050505091929192908035906020019064010000000081111561048b57600080fd5b82018360208201111561049d57600080fd5b803590602001918460018302840111640100000000831117156104bf57600080fd5b91908080601f016020809104026020016040519081016040528093929190818152602001838380828437600081840152601f19601f8201169050808301925050505050505091929192908035906020019064010000000081111561052257600080fd5b82018360208201111561053457600080fd5b8035906020019184600183028401116401000000008311171561055657600080fd5b91908080601f016020809104026020016040519081016040528093929190818152602001838380828437600081840152601f19601f820116905080830192505050505050509192919290803590602001906401000000008111156105b957600080fd5b8201836020820111156105cb57600080fd5b803590602001918460018302840111640100000000831117156105ed57600080fd5b91908080601f016020809104026020016040519081016040528093929190818152602001838380828437600081840152601f19601f8201169050808301925050505050505091929192908035906020019064010000000081111561065057600080fd5b82018360208201111561066257600080fd5b8035906020019184600183028401116401000000008311171561068457600080fd5b91908080601f016020809104026020016040519081016040528093929190818152602001838380828437600081840152601f19601f820116905080830192505050505050509192919290505050610ba6565b005b6106e0610cd3565b604051808273ffffffffffffffffffffffffffffffffffffffff1673ffffffffffffffffffffffffffffffffffffffff16815260200191505060405180910390f35b6107646004803603602081101561073857600080fd5b81019080803573ffffffffffffffffffffffffffffffffffffffff169060200190929190505050610cf8565b6040518082815260200191505060405180910390f35b6107c66004803603604081101561079057600080fd5b81019080803573ffffffffffffffffffffffffffffffffffffffff16906020019092919080359060200190929190505050610d44565b604051808060200180602001848152602001838103835286818151815260200191508051906020019080838360005b838110156108105780820151818401526020810190506107f5565b50505050905090810190601f16801561083d5780820380516001836020036101000a031916815260200191505b50838103825285818151815260200191508051906020019080838360005b8381101561087657808201518184015260208101905061085b565b50505050905090810190601f1680156108a35780820380516001836020036101000a031916815260200191505b509550505050505060405180910390f35b6109ca60048036036101008110156108cb57600080fd5b81019080803573ffffffffffffffffffffffffffffffffffffffff1690602001909291908035906020019064010000000081111561090857600080fd5b82018360208201111561091a57600080fd5b8035906020019184600183028401116401000000008311171561093c57600080fd5b91908080601f016020809104026020016040519081016040528093929190818152602001838380828437600081840152601f19601f820116905080830192505050505050509192919290803590602001909291908035906020019092919080359060200190929190803590602001909291908035906020019092919080359060200190929190505050610f27565b005b600160008573ffffffffffffffffffffffffffffffffffffffff1673ffffffffffffffffffffffffffffffffffffffff168152602001908152602001600020604051806060016040528085815260200184815260200183815250908060018154018082558091505090600182039060005260206000209060030201600090919290919091506000820151816000019080519060200190610a6d92919061102a565b506020820151816001019080519060200190610a8a92919061102a565b506040820151816002015550505050505050565b80600460008473ffffffffffffffffffffffffffffffffffffffff1673ffffffffffffffffffffffffffffffffffffffff1681526020019081526020016000209080519060200190610af19291906110aa565b505050565b60046020528060005260406000206000915090508054600181600116156101000203166002900480601f016020809104026020016040519081016040528092919081815260200182805460018160011615610100020316600290048015610b9e5780601f10610b7357610100808354040283529160200191610b9e565b820191906000526020600020905b815481529060010190602001808311610b8157829003601f168201915b505050505081565b600260008773ffffffffffffffffffffffffffffffffffffffff1673ffffffffffffffffffffffffffffffffffffffff1681526020019081526020016000206040518060a0016040528087815260200186815260200185815260200184815260200183815250908060018154018082558091505090600182039060005260206000209060050201600090919290919091506000820151816000019080519060200190610c5392919061102a565b506020820151816001019080519060200190610c7092919061102a565b506040820151816002019080519060200190610c8d92919061102a565b506060820151816003019080519060200190610caa92919061102a565b506080820151816004019080519060200190610cc792919061102a565b50505050505050505050565b6000809054906101000a900473ffffffffffffffffffffffffffffffffffffffff1681565b6000600360008373ffffffffffffffffffffffffffffffffffffffff1673ffffffffffffffffffffffffffffffffffffffff168152602001908152602001600020805490509050919050565b6060806000610d5161112a565b600160008773ffffffffffffffffffffffffffffffffffffffff1673ffffffffffffffffffffffffffffffffffffffff1681526020019081526020016000208581548110610d9b57fe5b9060005260206000209060030201604051806060016040529081600082018054600181600116156101000203166002900480601f016020809104026020016040519081016040528092919081815260200182805460018160011615610100020316600290048015610e4d5780601f10610e2257610100808354040283529160200191610e4d565b820191906000526020600020905b815481529060010190602001808311610e3057829003601f168201915b50505050508152602001600182018054600181600116156101000203166002900480601f016020809104026020016040519081016040528092919081815260200182805460018160011615610100020316600290048015610eef5780601f10610ec457610100808354040283529160200191610eef565b820191906000526020600020905b815481529060010190602001808311610ed257829003601f168201915b505050505081526020016002820154815250509050806000015181602001518260400151829250819150935093509350509250925092565b600360008973ffffffffffffffffffffffffffffffffffffffff1673ffffffffffffffffffffffffffffffffffffffff1681526020019081526020016000206040518060e0016040528089815260200188815260200187815260200186815260200185815260200184815260200183815250908060018154018082558091505090600182039060005260206000209060070201600090919290919091506000820151816000019080519060200190610fe092919061102a565b506020820151816001015560408201518160020155606082015181600301556080820151816004015560a0820151816005015560c082015181600601555050505050505050505050565b828054600181600116156101000203166002900490600052602060002090601f016020900481019282601f1061106b57805160ff1916838001178555611099565b82800160010185558215611099579182015b8281111561109857825182559160200191906001019061107d565b5b5090506110a6919061114b565b5090565b828054600181600116156101000203166002900490600052602060002090601f016020900481019282601f106110eb57805160ff1916838001178555611119565b82800160010185558215611119579182015b828111156111185782518255916020019190600101906110fd565b5b509050611126919061114b565b5090565b60405180606001604052806060815260200160608152602001600081525090565b61116d91905b80821115611169576000816000905550600101611151565b5090565b9056fea265627a7a723158208165a06e384d79dbf48004c628b26c1cac3ae938a76f00657f54032ee61dcd2b64736f6c63430005100032",
  "source": "// SPDX-License-Identifier: MIT\r\npragma solidity >=0.4.22 <0.8.0;\r\n\r\ncontract IdentityManagement\r\n{\r\n\r\n    address public ContractOwner;\r\n    \r\n    constructor() public {\r\n        ContractOwner = msg.sender;\r\n    }\r\n\r\n    struct UserInfo{\r\n\t\tstring FullName;\r\n\t\tstring EmailID;\r\n\t\tuint MobileNo;\r\n    }\r\n    \r\n    struct UserDL{\r\n\t\tstring DL_No;\r\n\t\tstring DL_Name;\r\n\t\tstring DL_DOB;\r\n\t\tstring DL_Hash;\r\n\t\tstring DL_Address;\r\n    }\r\n    struct DLRequest{\r\n\t\tstring RequestedBy;\r\n\t\tuint DL_No;\r\n\t\tuint DL_Name;\r\n\t\tuint DL_DOB;\r\n\t\tuint DL_Hash;\r\n\t\tuint DL_Address;\r\n\t\tuint DL_OverAll_Status;\r\n    }\r\n     /*\r\n            ApprovalStatus\r\n        -------------\r\n        0 --  default status\r\n        1 --  Requested\r\n        2 --  Approved\r\n        3 --  Rejected\r\n    */\r\n   \r\n  \r\n\r\n    mapping(address => UserInfo[]) UserMap;\r\n\tmapping(address => UserDL[]) UserDLMap;\r\n    mapping(address => DLRequest[]) DLRequestMap;\r\n    mapping(address=>string) public checkFI;\r\n\r\n\r\n\r\n    function addFI(address FIaddress,string memory FIname)public{\r\n        checkFI[address(FIaddress)]=FIname;\r\n    }\r\n\t\r\n\t\r\n    function AddUser(address UserAddress,string memory FullName,string memory EmailID,uint MobileNo) public\r\n    {\r\n        UserMap[UserAddress].push(UserInfo(FullName,EmailID,MobileNo));\r\n    }\r\n\r\n    function AddUserDL(address UserAddress,string memory DL_No, string memory DL_Name, string memory DL_DOB, string memory DL_Hash, string memory DL_Address)public\r\n    {\r\n        UserDLMap[UserAddress].push(UserDL(DL_No, DL_Name, DL_DOB, DL_Hash, DL_Address));\r\n    }\r\n\r\n     function AddDLRequest(address UserAddress,string memory RequestedBy, uint DL_No, uint DL_Name, uint DL_DOB, uint DL_Hash, uint DL_Address, uint DL_OverAll_Status)public\r\n    {\r\n        DLRequestMap[UserAddress].push(DLRequest(RequestedBy, DL_No, DL_Name, DL_DOB, DL_Hash, DL_Address, DL_OverAll_Status));\r\n    }\r\n     function ViewDLRequestLength(address UserAddress) public returns(uint)\r\n    {\r\n        return DLRequestMap[UserAddress].length;\r\n    }\r\n\r\n\r\n\r\n\r\n\r\n    function viewUser(address UserAddress, uint UserIndex) public returns(string memory FullName,string memory EmailID,uint MobileNo)\r\n    {\r\n        UserInfo memory ThisUser=UserMap[UserAddress][UserIndex];\r\n        return (ThisUser.FullName, ThisUser.EmailID, ThisUser.MobileNo);\r\n    }\r\n\r\n   \r\n\r\n}\r\n",
  "sourcePath": "E:/react/blocklance/smartcontract/contracts/IdentityManagemnet.sol",
  "compiler": {
    "name": "solc",
    "version": "0.5.16+commit.9c3226ce.Emscripten.clang"
  },
  "schemaVersion": "3.2.3",
  "updatedAt": "2020-09-22T14:40:38.572Z",
  "networkType": "ethereum",
  "devdoc": {
    "methods": {}
  },
  "userdoc": {
    "methods": {}
  }
}