{
  "contractName": "IdentityManagement",
  "abi": [
    {
      "inputs": [],
      "payable": false,
      "stateMutability": "nonpayable",
      "type": "constructor"
    },
    {
      "constant": false,
      "inputs": [
        {
          "internalType": "address",
          "name": "UserAddress",
          "type": "address"
        },
        {
          "internalType": "string",
          "name": "FullName",
          "type": "string"
        },
        {
          "internalType": "string",
          "name": "EmailID",
          "type": "string"
        },
        {
          "internalType": "uint256",
          "name": "MobileNo",
          "type": "uint256"
        }
      ],
      "name": "AddUser",
      "outputs": [],
      "payable": false,
      "stateMutability": "nonpayable",
      "type": "function"
    },
    {
      "constant": false,
      "inputs": [
        {
          "internalType": "address",
          "name": "UserAddress",
          "type": "address"
        },
        {
          "internalType": "string",
          "name": "DL_No",
          "type": "string"
        },
        {
          "internalType": "string",
          "name": "DL_Name",
          "type": "string"
        },
        {
          "internalType": "string",
          "name": "DL_DOB",
          "type": "string"
        },
        {
          "internalType": "bytes",
          "name": "DL_Hash",
          "type": "bytes"
        },
        {
          "internalType": "string",
          "name": "DL_Address",
          "type": "string"
        }
      ],
      "name": "AddUserDL",
      "outputs": [],
      "payable": false,
      "stateMutability": "nonpayable",
      "type": "function"
    },
    {
      "constant": false,
      "inputs": [
        {
          "internalType": "address",
          "name": "UserAddress",
          "type": "address"
        },
        {
          "internalType": "uint256",
          "name": "UserIndex",
          "type": "uint256"
        }
      ],
      "name": "viewUser",
      "outputs": [
        {
          "internalType": "string",
          "name": "FullName",
          "type": "string"
        },
        {
          "internalType": "string",
          "name": "EmailID",
          "type": "string"
        },
        {
          "internalType": "uint256",
          "name": "MobileNo",
          "type": "uint256"
        }
      ],
      "payable": false,
      "stateMutability": "nonpayable",
      "type": "function"
    }
  ],
  "bytecode": "0x608060405234801561001057600080fd5b50336000806101000a81548173ffffffffffffffffffffffffffffffffffffffff021916908373ffffffffffffffffffffffffffffffffffffffff160217905550610b90806100606000396000f3fe608060405234801561001057600080fd5b50600436106100415760003560e01c80632771be551461004657806373de85d1146101c2578063af3f3290146104f9575b600080fd5b6101c06004803603608081101561005c57600080fd5b81019080803573ffffffffffffffffffffffffffffffffffffffff1690602001909291908035906020019064010000000081111561009957600080fd5b8201836020820111156100ab57600080fd5b803590602001918460018302840111640100000000831117156100cd57600080fd5b91908080601f016020809104026020016040519081016040528093929190818152602001838380828437600081840152601f19601f8201169050808301925050505050505091929192908035906020019064010000000081111561013057600080fd5b82018360208201111561014257600080fd5b8035906020019184600183028401116401000000008311171561016457600080fd5b91908080601f016020809104026020016040519081016040528093929190818152602001838380828437600081840152601f19601f82011690508083019250505050505050919291929080359060200190929190505050610633565b005b6104f7600480360360c08110156101d857600080fd5b81019080803573ffffffffffffffffffffffffffffffffffffffff1690602001909291908035906020019064010000000081111561021557600080fd5b82018360208201111561022757600080fd5b8035906020019184600183028401116401000000008311171561024957600080fd5b91908080601f016020809104026020016040519081016040528093929190818152602001838380828437600081840152601f19601f820116905080830192505050505050509192919290803590602001906401000000008111156102ac57600080fd5b8201836020820111156102be57600080fd5b803590602001918460018302840111640100000000831117156102e057600080fd5b91908080601f016020809104026020016040519081016040528093929190818152602001838380828437600081840152601f19601f8201169050808301925050505050505091929192908035906020019064010000000081111561034357600080fd5b82018360208201111561035557600080fd5b8035906020019184600183028401116401000000008311171561037757600080fd5b91908080601f016020809104026020016040519081016040528093929190818152602001838380828437600081840152601f19601f820116905080830192505050505050509192919290803590602001906401000000008111156103da57600080fd5b8201836020820111156103ec57600080fd5b8035906020019184600183028401116401000000008311171561040e57600080fd5b91908080601f016020809104026020016040519081016040528093929190818152602001838380828437600081840152601f19601f8201169050808301925050505050505091929192908035906020019064010000000081111561047157600080fd5b82018360208201111561048357600080fd5b803590602001918460018302840111640100000000831117156104a557600080fd5b91908080601f016020809104026020016040519081016040528093929190818152602001838380828437600081840152601f19601f820116905080830192505050505050509192919290505050610705565b005b6105456004803603604081101561050f57600080fd5b81019080803573ffffffffffffffffffffffffffffffffffffffff16906020019092919080359060200190929190505050610832565b604051808060200180602001848152602001838103835286818151815260200191508051906020019080838360005b8381101561058f578082015181840152602081019050610574565b50505050905090810190601f1680156105bc5780820380516001836020036101000a031916815260200191505b50838103825285818151815260200191508051906020019080838360005b838110156105f55780820151818401526020810190506105da565b50505050905090810190601f1680156106225780820380516001836020036101000a031916815260200191505b509550505050505060405180910390f35b600160008573ffffffffffffffffffffffffffffffffffffffff1673ffffffffffffffffffffffffffffffffffffffff1681526020019081526020016000206040518060600160405280858152602001848152602001838152509080600181540180825580915050906001820390600052602060002090600302016000909192909190915060008201518160000190805190602001906106d4929190610a15565b5060208201518160010190805190602001906106f1929190610a15565b506040820151816002015550505050505050565b600260008773ffffffffffffffffffffffffffffffffffffffff1673ffffffffffffffffffffffffffffffffffffffff1681526020019081526020016000206040518060a00160405280878152602001868152602001858152602001848152602001838152509080600181540180825580915050906001820390600052602060002090600502016000909192909190915060008201518160000190805190602001906107b2929190610a15565b5060208201518160010190805190602001906107cf929190610a15565b5060408201518160020190805190602001906107ec929190610a15565b506060820151816003019080519060200190610809929190610a95565b506080820151816004019080519060200190610826929190610a15565b50505050505050505050565b606080600061083f610b15565b600160008773ffffffffffffffffffffffffffffffffffffffff1673ffffffffffffffffffffffffffffffffffffffff168152602001908152602001600020858154811061088957fe5b9060005260206000209060030201604051806060016040529081600082018054600181600116156101000203166002900480601f01602080910402602001604051908101604052809291908181526020018280546001816001161561010002031660029004801561093b5780601f106109105761010080835404028352916020019161093b565b820191906000526020600020905b81548152906001019060200180831161091e57829003601f168201915b50505050508152602001600182018054600181600116156101000203166002900480601f0160208091040260200160405190810160405280929190818152602001828054600181600116156101000203166002900480156109dd5780601f106109b2576101008083540402835291602001916109dd565b820191906000526020600020905b8154815290600101906020018083116109c057829003601f168201915b505050505081526020016002820154815250509050806000015181602001518260400151829250819150935093509350509250925092565b828054600181600116156101000203166002900490600052602060002090601f016020900481019282601f10610a5657805160ff1916838001178555610a84565b82800160010185558215610a84579182015b82811115610a83578251825591602001919060010190610a68565b5b509050610a919190610b36565b5090565b828054600181600116156101000203166002900490600052602060002090601f016020900481019282601f10610ad657805160ff1916838001178555610b04565b82800160010185558215610b04579182015b82811115610b03578251825591602001919060010190610ae8565b5b509050610b119190610b36565b5090565b60405180606001604052806060815260200160608152602001600081525090565b610b5891905b80821115610b54576000816000905550600101610b3c565b5090565b9056fea265627a7a72315820e82b4d8b3b3076b4f1a4d6fc33a267a21aae8ed1e8d5fbbf4f01e09c74472ad564736f6c63430005100032",
  "source": "// SPDX-License-Identifier: MIT\r\npragma solidity >=0.4.22 <0.8.0;\r\n\r\ncontract IdentityManagement\r\n{\r\n\r\n    address ContractOwner;\r\n    \r\n    constructor()public {\r\n        ContractOwner = msg.sender;\r\n    }\r\n\r\n    struct UserInfo{\r\n\t\tstring FullName;\r\n\t\tstring EmailID;\r\n\t\tuint MobileNo;\r\n    }\r\n    \r\n    struct UserDL{\r\n\t\tstring DL_No;\r\n\t\tstring DL_Name;\r\n\t\tstring DL_DOB;\r\n\t\tbytes DL_Hash;\r\n\t\tstring DL_Address;\r\n    }\r\n\r\n   \r\n  \r\n\r\n    mapping(address => UserInfo[]) UserMap;\r\n\tmapping(address => UserDL[]) UserDLMap;\r\n\t\r\n\t\r\n    function AddUser(address UserAddress,string memory FullName,string memory EmailID,uint MobileNo) public\r\n    {\r\n        UserMap[UserAddress].push(UserInfo(FullName,EmailID,MobileNo));\r\n    }\r\n\r\n    function AddUserDL(address UserAddress,string memory DL_No, string memory DL_Name, string memory DL_DOB, bytes memory DL_Hash, string memory DL_Address)public\r\n    {\r\n        UserDLMap[UserAddress].push(UserDL(DL_No, DL_Name, DL_DOB, DL_Hash, DL_Address));\r\n    }\r\n\r\n\r\n\r\n\r\n    function viewUser(address UserAddress, uint UserIndex) public returns(string memory FullName,string memory EmailID,uint MobileNo)\r\n    {\r\n        UserInfo memory ThisUser=UserMap[UserAddress][UserIndex];\r\n        return (ThisUser.FullName, ThisUser.EmailID, ThisUser.MobileNo);\r\n    }\r\n\r\n   \r\n\r\n}\r\n",
  "sourcePath": "E:/react/blocklance/smartcontract/contracts/IdentityManagemnet.sol",
  "compiler": {
    "name": "solc",
    "version": "0.5.16+commit.9c3226ce.Emscripten.clang"
  },
  "schemaVersion": "3.2.3",
  "updatedAt": "2020-09-20T19:09:50.456Z",
  "networkType": "ethereum",
  "devdoc": {
    "methods": {}
  },
  "userdoc": {
    "methods": {}
  }
}