{
  "contractName": "IdentityManagement",
  "abi": [
    {
      "inputs": [],
      "payable": false,
      "stateMutability": "nonpayable",
      "type": "constructor"
    },
    {
      "constant": true,
      "inputs": [],
      "name": "ContractOwner",
      "outputs": [
        {
          "internalType": "address",
          "name": "",
          "type": "address"
        }
      ],
      "payable": false,
      "stateMutability": "view",
      "type": "function"
    },
    {
      "constant": true,
      "inputs": [
        {
          "internalType": "address",
          "name": "",
          "type": "address"
        }
      ],
      "name": "checkFI",
      "outputs": [
        {
          "internalType": "string",
          "name": "",
          "type": "string"
        }
      ],
      "payable": false,
      "stateMutability": "view",
      "type": "function"
    },
    {
      "constant": false,
      "inputs": [
        {
          "internalType": "address",
          "name": "FIaddress",
          "type": "address"
        },
        {
          "internalType": "string",
          "name": "FIname",
          "type": "string"
        }
      ],
      "name": "addFI",
      "outputs": [],
      "payable": false,
      "stateMutability": "nonpayable",
      "type": "function"
    },
    {
      "constant": false,
      "inputs": [
        {
          "internalType": "address",
          "name": "UserAddress",
          "type": "address"
        },
        {
          "internalType": "string",
          "name": "FullName",
          "type": "string"
        },
        {
          "internalType": "string",
          "name": "EmailID",
          "type": "string"
        },
        {
          "internalType": "uint256",
          "name": "MobileNo",
          "type": "uint256"
        }
      ],
      "name": "AddUser",
      "outputs": [],
      "payable": false,
      "stateMutability": "nonpayable",
      "type": "function"
    },
    {
      "constant": false,
      "inputs": [
        {
          "internalType": "address",
          "name": "UserAddress",
          "type": "address"
        },
        {
          "internalType": "string",
          "name": "DL_No",
          "type": "string"
        },
        {
          "internalType": "string",
          "name": "DL_Name",
          "type": "string"
        },
        {
          "internalType": "string",
          "name": "DL_DOB",
          "type": "string"
        },
        {
          "internalType": "string",
          "name": "DL_Hash",
          "type": "string"
        },
        {
          "internalType": "string",
          "name": "DL_Address",
          "type": "string"
        }
      ],
      "name": "AddUserDL",
      "outputs": [],
      "payable": false,
      "stateMutability": "nonpayable",
      "type": "function"
    },
    {
      "constant": false,
      "inputs": [
        {
          "internalType": "address",
          "name": "UserAddress",
          "type": "address"
        },
        {
          "internalType": "string",
          "name": "RequestedBy",
          "type": "string"
        },
        {
          "internalType": "uint256",
          "name": "DL_No",
          "type": "uint256"
        },
        {
          "internalType": "uint256",
          "name": "DL_Name",
          "type": "uint256"
        },
        {
          "internalType": "uint256",
          "name": "DL_DOB",
          "type": "uint256"
        },
        {
          "internalType": "uint256",
          "name": "DL_Hash",
          "type": "uint256"
        },
        {
          "internalType": "uint256",
          "name": "DL_Address",
          "type": "uint256"
        },
        {
          "internalType": "uint256",
          "name": "DL_OverAll_Status",
          "type": "uint256"
        }
      ],
      "name": "AddDLRequest",
      "outputs": [],
      "payable": false,
      "stateMutability": "nonpayable",
      "type": "function"
    },
    {
      "constant": false,
      "inputs": [
        {
          "internalType": "address",
          "name": "UserAddress",
          "type": "address"
        }
      ],
      "name": "ViewDLRequestLength",
      "outputs": [
        {
          "internalType": "uint256",
          "name": "",
          "type": "uint256"
        }
      ],
      "payable": false,
      "stateMutability": "nonpayable",
      "type": "function"
    },
    {
      "constant": false,
      "inputs": [
        {
          "internalType": "address",
          "name": "UserAddress",
          "type": "address"
        },
        {
          "internalType": "uint256",
          "name": "RequestIndex",
          "type": "uint256"
        }
      ],
      "name": "ViewDLRequestHeader",
      "outputs": [
        {
          "internalType": "string",
          "name": "RequestedBy",
          "type": "string"
        },
        {
          "internalType": "uint256",
          "name": "DL_OverAll_Status",
          "type": "uint256"
        }
      ],
      "payable": false,
      "stateMutability": "nonpayable",
      "type": "function"
    },
    {
      "constant": false,
      "inputs": [
        {
          "internalType": "address",
          "name": "UserAddress",
          "type": "address"
        },
        {
          "internalType": "uint256",
          "name": "RequestIndex",
          "type": "uint256"
        }
      ],
      "name": "ViewDLRequestDetail",
      "outputs": [
        {
          "internalType": "string",
          "name": "RequestedBy",
          "type": "string"
        },
        {
          "internalType": "uint256",
          "name": "DL_No",
          "type": "uint256"
        },
        {
          "internalType": "uint256",
          "name": "DL_Name",
          "type": "uint256"
        },
        {
          "internalType": "uint256",
          "name": "DL_DOB",
          "type": "uint256"
        },
        {
          "internalType": "uint256",
          "name": "DL_Hash",
          "type": "uint256"
        },
        {
          "internalType": "uint256",
          "name": "DL_Address",
          "type": "uint256"
        },
        {
          "internalType": "uint256",
          "name": "DL_OverAll_Status",
          "type": "uint256"
        }
      ],
      "payable": false,
      "stateMutability": "nonpayable",
      "type": "function"
    },
    {
      "constant": false,
      "inputs": [
        {
          "internalType": "address",
          "name": "UserAddress",
          "type": "address"
        },
        {
          "internalType": "uint256",
          "name": "RequestIndex",
          "type": "uint256"
        },
        {
          "internalType": "uint256",
          "name": "DL_No",
          "type": "uint256"
        },
        {
          "internalType": "uint256",
          "name": "DL_Name",
          "type": "uint256"
        },
        {
          "internalType": "uint256",
          "name": "DL_DOB",
          "type": "uint256"
        },
        {
          "internalType": "uint256",
          "name": "DL_Hash",
          "type": "uint256"
        },
        {
          "internalType": "uint256",
          "name": "DL_Address",
          "type": "uint256"
        },
        {
          "internalType": "uint256",
          "name": "DL_OverAll_Status",
          "type": "uint256"
        }
      ],
      "name": "UpdateRequestStatus",
      "outputs": [],
      "payable": false,
      "stateMutability": "nonpayable",
      "type": "function"
    },
    {
      "constant": false,
      "inputs": [
        {
          "internalType": "address",
          "name": "UserAddress",
          "type": "address"
        },
        {
          "internalType": "uint256",
          "name": "UserIndex",
          "type": "uint256"
        }
      ],
      "name": "viewUser",
      "outputs": [
        {
          "internalType": "string",
          "name": "FullName",
          "type": "string"
        },
        {
          "internalType": "string",
          "name": "EmailID",
          "type": "string"
        },
        {
          "internalType": "uint256",
          "name": "MobileNo",
          "type": "uint256"
        }
      ],
      "payable": false,
      "stateMutability": "nonpayable",
      "type": "function"
    },
    {
      "constant": false,
      "inputs": [
        {
          "internalType": "address",
          "name": "UserAddress",
          "type": "address"
        },
        {
          "internalType": "uint256",
          "name": "RequestIndex",
          "type": "uint256"
        }
      ],
      "name": "viewUserDL",
      "outputs": [
        {
          "internalType": "uint256",
          "name": "DL_No_S",
          "type": "uint256"
        },
        {
          "internalType": "string",
          "name": "DL_No_V",
          "type": "string"
        },
        {
          "internalType": "uint256",
          "name": "DL_Name_S",
          "type": "uint256"
        },
        {
          "internalType": "string",
          "name": "DL_Name_V",
          "type": "string"
        },
        {
          "internalType": "uint256",
          "name": "DL_DOB_S",
          "type": "uint256"
        },
        {
          "internalType": "string",
          "name": "DL_DOB_V",
          "type": "string"
        },
        {
          "internalType": "uint256",
          "name": "DL_Hash_S",
          "type": "uint256"
        },
        {
          "internalType": "string",
          "name": "DL_Hash_V",
          "type": "string"
        },
        {
          "internalType": "uint256",
          "name": "DL_Address_S",
          "type": "uint256"
        },
        {
          "internalType": "string",
          "name": "DL_Address_V",
          "type": "string"
        }
      ],
      "payable": false,
      "stateMutability": "nonpayable",
      "type": "function"
    }
  ],
  "bytecode": "0x608060405234801561001057600080fd5b50336000806101000a81548173ffffffffffffffffffffffffffffffffffffffff021916908373ffffffffffffffffffffffffffffffffffffffff1602179055506121c7806100606000396000f3fe608060405234801561001057600080fd5b50600436106100b45760003560e01c8063720dd1c811610071578063720dd1c81461083f5780638bd03f2914610897578063a24fab7d14610b31578063af3f329014610bff578063de9603b314610d39578063fe8f2a7514610dc4576100b4565b806323ff7955146100b95780632771be55146101aa5780633100e3251461032657806331a2edb914610401578063400547d4146104be5780635a63fbc9146107f5575b600080fd5b610105600480360360408110156100cf57600080fd5b81019080803573ffffffffffffffffffffffffffffffffffffffff16906020019092919080359060200190929190505050610edc565b6040518080602001888152602001878152602001868152602001858152602001848152602001838152602001828103825289818151815260200191508051906020019080838360005b8381101561016957808201518184015260208101905061014e565b50505050905090810190601f1680156101965780820380516001836020036101000a031916815260200191505b509850505050505050505060405180910390f35b610324600480360360808110156101c057600080fd5b81019080803573ffffffffffffffffffffffffffffffffffffffff169060200190929190803590602001906401000000008111156101fd57600080fd5b82018360208201111561020f57600080fd5b8035906020019184600183028401116401000000008311171561023157600080fd5b91908080601f016020809104026020016040519081016040528093929190818152602001838380828437600081840152601f19601f8201169050808301925050505050505091929192908035906020019064010000000081111561029457600080fd5b8201836020820111156102a657600080fd5b803590602001918460018302840111640100000000831117156102c857600080fd5b91908080601f016020809104026020016040519081016040528093929190818152602001838380828437600081840152601f19601f82011690508083019250505050505050919291929080359060200190929190505050611073565b005b6103ff6004803603604081101561033c57600080fd5b81019080803573ffffffffffffffffffffffffffffffffffffffff1690602001909291908035906020019064010000000081111561037957600080fd5b82018360208201111561038b57600080fd5b803590602001918460018302840111640100000000831117156103ad57600080fd5b91908080601f016020809104026020016040519081016040528093929190818152602001838380828437600081840152601f19601f820116905080830192505050505050509192919290505050611145565b005b6104436004803603602081101561041757600080fd5b81019080803573ffffffffffffffffffffffffffffffffffffffff16906020019092919050505061119d565b6040518080602001828103825283818151815260200191508051906020019080838360005b83811015610483578082015181840152602081019050610468565b50505050905090810190601f1680156104b05780820380516001836020036101000a031916815260200191505b509250505060405180910390f35b6107f3600480360360c08110156104d457600080fd5b81019080803573ffffffffffffffffffffffffffffffffffffffff1690602001909291908035906020019064010000000081111561051157600080fd5b82018360208201111561052357600080fd5b8035906020019184600183028401116401000000008311171561054557600080fd5b91908080601f016020809104026020016040519081016040528093929190818152602001838380828437600081840152601f19601f820116905080830192505050505050509192919290803590602001906401000000008111156105a857600080fd5b8201836020820111156105ba57600080fd5b803590602001918460018302840111640100000000831117156105dc57600080fd5b91908080601f016020809104026020016040519081016040528093929190818152602001838380828437600081840152601f19601f8201169050808301925050505050505091929192908035906020019064010000000081111561063f57600080fd5b82018360208201111561065157600080fd5b8035906020019184600183028401116401000000008311171561067357600080fd5b91908080601f016020809104026020016040519081016040528093929190818152602001838380828437600081840152601f19601f820116905080830192505050505050509192919290803590602001906401000000008111156106d657600080fd5b8201836020820111156106e857600080fd5b8035906020019184600183028401116401000000008311171561070a57600080fd5b91908080601f016020809104026020016040519081016040528093929190818152602001838380828437600081840152601f19601f8201169050808301925050505050505091929192908035906020019064010000000081111561076d57600080fd5b82018360208201111561077f57600080fd5b803590602001918460018302840111640100000000831117156107a157600080fd5b91908080601f016020809104026020016040519081016040528093929190818152602001838380828437600081840152601f19601f82011690508083019250505050505050919291929050505061124d565b005b6107fd61137a565b604051808273ffffffffffffffffffffffffffffffffffffffff1673ffffffffffffffffffffffffffffffffffffffff16815260200191505060405180910390f35b6108816004803603602081101561085557600080fd5b81019080803573ffffffffffffffffffffffffffffffffffffffff16906020019092919050505061139f565b6040518082815260200191505060405180910390f35b6108e3600480360360408110156108ad57600080fd5b81019080803573ffffffffffffffffffffffffffffffffffffffff169060200190929190803590602001909291905050506113eb565b604051808b8152602001806020018a81526020018060200189815260200180602001888152602001806020018781526020018060200186810386528f818151815260200191508051906020019080838360005b83811015610951578082015181840152602081019050610936565b50505050905090810190601f16801561097e5780820380516001836020036101000a031916815260200191505b5086810385528d818151815260200191508051906020019080838360005b838110156109b757808201518184015260208101905061099c565b50505050905090810190601f1680156109e45780820380516001836020036101000a031916815260200191505b5086810384528b818151815260200191508051906020019080838360005b83811015610a1d578082015181840152602081019050610a02565b50505050905090810190601f168015610a4a5780820380516001836020036101000a031916815260200191505b50868103835289818151815260200191508051906020019080838360005b83811015610a83578082015181840152602081019050610a68565b50505050905090810190601f168015610ab05780820380516001836020036101000a031916815260200191505b50868103825287818151815260200191508051906020019080838360005b83811015610ae9578082015181840152602081019050610ace565b50505050905090810190601f168015610b165780820380516001836020036101000a031916815260200191505b509f5050505050505050505050505050505060405180910390f35b610b7d60048036036040811015610b4757600080fd5b81019080803573ffffffffffffffffffffffffffffffffffffffff16906020019092919080359060200190929190505050611948565b6040518080602001838152602001828103825284818151815260200191508051906020019080838360005b83811015610bc3578082015181840152602081019050610ba8565b50505050905090810190601f168015610bf05780820380516001836020036101000a031916815260200191505b50935050505060405180910390f35b610c4b60048036036040811015610c1557600080fd5b81019080803573ffffffffffffffffffffffffffffffffffffffff16906020019092919080359060200190929190505050611ab0565b604051808060200180602001848152602001838103835286818151815260200191508051906020019080838360005b83811015610c95578082015181840152602081019050610c7a565b50505050905090810190601f168015610cc25780820380516001836020036101000a031916815260200191505b50838103825285818151815260200191508051906020019080838360005b83811015610cfb578082015181840152602081019050610ce0565b50505050905090810190601f168015610d285780820380516001836020036101000a031916815260200191505b509550505050505060405180910390f35b610dc26004803603610100811015610d5057600080fd5b81019080803573ffffffffffffffffffffffffffffffffffffffff16906020019092919080359060200190929190803590602001909291908035906020019092919080359060200190929190803590602001909291908035906020019092919080359060200190929190505050611c93565b005b610eda6004803603610100811015610ddb57600080fd5b81019080803573ffffffffffffffffffffffffffffffffffffffff16906020019092919080359060200190640100000000811115610e1857600080fd5b820183602082011115610e2a57600080fd5b80359060200191846001830284011164010000000083111715610e4c57600080fd5b91908080601f016020809104026020016040519081016040528093929190818152602001838380828437600081840152601f19601f820116905080830192505050505050509192919290803590602001909291908035906020019092919080359060200190929190803590602001909291908035906020019092919080359060200190929190505050611edd565b005b6060600080600080600080610eef611fe0565b600360008b73ffffffffffffffffffffffffffffffffffffffff1673ffffffffffffffffffffffffffffffffffffffff1681526020019081526020016000208981548110610f3957fe5b90600052602060002090600702016040518060e0016040529081600082018054600181600116156101000203166002900480601f016020809104026020016040519081016040528092919081815260200182805460018160011615610100020316600290048015610feb5780601f10610fc057610100808354040283529160200191610feb565b820191906000526020600020905b815481529060010190602001808311610fce57829003601f168201915b5050505050815260200160018201548152602001600282015481526020016003820154815260200160048201548152602001600582015481526020016006820154815250509050806000015181602001518260400151836060015184608001518560a001518660c0015186965097509750975097509750975097505092959891949750929550565b600160008573ffffffffffffffffffffffffffffffffffffffff1673ffffffffffffffffffffffffffffffffffffffff16815260200190815260200160002060405180606001604052808581526020018481526020018381525090806001815401808255809150509060018203906000526020600020906003020160009091929091909150600082015181600001908051906020019061111492919061201d565b50602082015181600101908051906020019061113192919061201d565b506040820151816002015550505050505050565b80600460008473ffffffffffffffffffffffffffffffffffffffff1673ffffffffffffffffffffffffffffffffffffffff168152602001908152602001600020908051906020019061119892919061209d565b505050565b60046020528060005260406000206000915090508054600181600116156101000203166002900480601f0160208091040260200160405190810160405280929190818152602001828054600181600116156101000203166002900480156112455780601f1061121a57610100808354040283529160200191611245565b820191906000526020600020905b81548152906001019060200180831161122857829003601f168201915b505050505081565b600260008773ffffffffffffffffffffffffffffffffffffffff1673ffffffffffffffffffffffffffffffffffffffff1681526020019081526020016000206040518060a00160405280878152602001868152602001858152602001848152602001838152509080600181540180825580915050906001820390600052602060002090600502016000909192909190915060008201518160000190805190602001906112fa92919061201d565b50602082015181600101908051906020019061131792919061201d565b50604082015181600201908051906020019061133492919061201d565b50606082015181600301908051906020019061135192919061201d565b50608082015181600401908051906020019061136e92919061201d565b50505050505050505050565b6000809054906101000a900473ffffffffffffffffffffffffffffffffffffffff1681565b6000600360008373ffffffffffffffffffffffffffffffffffffffff1673ffffffffffffffffffffffffffffffffffffffff168152602001908152602001600020805490509050919050565b600060606000606060006060600060606000606061140761211d565b600260008e73ffffffffffffffffffffffffffffffffffffffff1673ffffffffffffffffffffffffffffffffffffffff16815260200190815260200160002060008154811061145257fe5b90600052602060002090600502016040518060a0016040529081600082018054600181600116156101000203166002900480601f0160208091040260200160405190810160405280929190818152602001828054600181600116156101000203166002900480156115045780601f106114d957610100808354040283529160200191611504565b820191906000526020600020905b8154815290600101906020018083116114e757829003601f168201915b50505050508152602001600182018054600181600116156101000203166002900480601f0160208091040260200160405190810160405280929190818152602001828054600181600116156101000203166002900480156115a65780601f1061157b576101008083540402835291602001916115a6565b820191906000526020600020905b81548152906001019060200180831161158957829003601f168201915b50505050508152602001600282018054600181600116156101000203166002900480601f0160208091040260200160405190810160405280929190818152602001828054600181600116156101000203166002900480156116485780601f1061161d57610100808354040283529160200191611648565b820191906000526020600020905b81548152906001019060200180831161162b57829003601f168201915b50505050508152602001600382018054600181600116156101000203166002900480601f0160208091040260200160405190810160405280929190818152602001828054600181600116156101000203166002900480156116ea5780601f106116bf576101008083540402835291602001916116ea565b820191906000526020600020905b8154815290600101906020018083116116cd57829003601f168201915b50505050508152602001600482018054600181600116156101000203166002900480601f01602080910402602001604051908101604052809291908181526020018280546001816001161561010002031660029004801561178c5780601f106117615761010080835404028352916020019161178c565b820191906000526020600020905b81548152906001019060200180831161176f57829003601f168201915b505050505081525050905061179f611fe0565b600360008f73ffffffffffffffffffffffffffffffffffffffff1673ffffffffffffffffffffffffffffffffffffffff1681526020019081526020016000208d815481106117e957fe5b90600052602060002090600702016040518060e0016040529081600082018054600181600116156101000203166002900480601f01602080910402602001604051908101604052809291908181526020018280546001816001161561010002031660029004801561189b5780601f106118705761010080835404028352916020019161189b565b820191906000526020600020905b81548152906001019060200180831161187e57829003601f168201915b5050505050815260200160018201548152602001600282015481526020016003820154815260200160048201548152602001600582015481526020016006820154815250509050806020015182600001518260400151846020015184606001518660400151866080015188606001518860a001518a608001518898508696508494508292508090509b509b509b509b509b509b509b509b509b509b5050509295989b9194979a5092959850565b60606000611954611fe0565b600360008673ffffffffffffffffffffffffffffffffffffffff1673ffffffffffffffffffffffffffffffffffffffff168152602001908152602001600020848154811061199e57fe5b90600052602060002090600702016040518060e0016040529081600082018054600181600116156101000203166002900480601f016020809104026020016040519081016040528092919081815260200182805460018160011615610100020316600290048015611a505780601f10611a2557610100808354040283529160200191611a50565b820191906000526020600020905b815481529060010190602001808311611a3357829003601f168201915b505050505081526020016001820154815260200160028201548152602001600382015481526020016004820154815260200160058201548152602001600682015481525050905080600001518160c0015181915092509250509250929050565b6060806000611abd61214c565b600160008773ffffffffffffffffffffffffffffffffffffffff1673ffffffffffffffffffffffffffffffffffffffff1681526020019081526020016000208581548110611b0757fe5b9060005260206000209060030201604051806060016040529081600082018054600181600116156101000203166002900480601f016020809104026020016040519081016040528092919081815260200182805460018160011615610100020316600290048015611bb95780601f10611b8e57610100808354040283529160200191611bb9565b820191906000526020600020905b815481529060010190602001808311611b9c57829003601f168201915b50505050508152602001600182018054600181600116156101000203166002900480601f016020809104026020016040519081016040528092919081815260200182805460018160011615610100020316600290048015611c5b5780601f10611c3057610100808354040283529160200191611c5b565b820191906000526020600020905b815481529060010190602001808311611c3e57829003601f168201915b505050505081526020016002820154815250509050806000015181602001518260400151829250819150935093509350509250925092565b85600360008a73ffffffffffffffffffffffffffffffffffffffff1673ffffffffffffffffffffffffffffffffffffffff1681526020019081526020016000208881548110611cde57fe5b90600052602060002090600702016001018190555084600360008a73ffffffffffffffffffffffffffffffffffffffff1673ffffffffffffffffffffffffffffffffffffffff1681526020019081526020016000208881548110611d3e57fe5b90600052602060002090600702016002018190555083600360008a73ffffffffffffffffffffffffffffffffffffffff1673ffffffffffffffffffffffffffffffffffffffff1681526020019081526020016000208881548110611d9e57fe5b90600052602060002090600702016003018190555082600360008a73ffffffffffffffffffffffffffffffffffffffff1673ffffffffffffffffffffffffffffffffffffffff1681526020019081526020016000208881548110611dfe57fe5b90600052602060002090600702016004018190555081600360008a73ffffffffffffffffffffffffffffffffffffffff1673ffffffffffffffffffffffffffffffffffffffff1681526020019081526020016000208881548110611e5e57fe5b90600052602060002090600702016005018190555080600360008a73ffffffffffffffffffffffffffffffffffffffff1673ffffffffffffffffffffffffffffffffffffffff1681526020019081526020016000208881548110611ebe57fe5b9060005260206000209060070201600601819055505050505050505050565b600360008973ffffffffffffffffffffffffffffffffffffffff1673ffffffffffffffffffffffffffffffffffffffff1681526020019081526020016000206040518060e0016040528089815260200188815260200187815260200186815260200185815260200184815260200183815250908060018154018082558091505090600182039060005260206000209060070201600090919290919091506000820151816000019080519060200190611f9692919061201d565b506020820151816001015560408201518160020155606082015181600301556080820151816004015560a0820151816005015560c082015181600601555050505050505050505050565b6040518060e00160405280606081526020016000815260200160008152602001600081526020016000815260200160008152602001600081525090565b828054600181600116156101000203166002900490600052602060002090601f016020900481019282601f1061205e57805160ff191683800117855561208c565b8280016001018555821561208c579182015b8281111561208b578251825591602001919060010190612070565b5b509050612099919061216d565b5090565b828054600181600116156101000203166002900490600052602060002090601f016020900481019282601f106120de57805160ff191683800117855561210c565b8280016001018555821561210c579182015b8281111561210b5782518255916020019190600101906120f0565b5b509050612119919061216d565b5090565b6040518060a0016040528060608152602001606081526020016060815260200160608152602001606081525090565b60405180606001604052806060815260200160608152602001600081525090565b61218f91905b8082111561218b576000816000905550600101612173565b5090565b9056fea265627a7a723158201a98c844c65038328f78e4a722228bb8371a74f4be9ab26150dcdf876ddc5d2f64736f6c63430005100032",
  "source": "// SPDX-License-Identifier: MIT\r\npragma solidity >=0.4.22 <0.8.0;\r\n\r\ncontract IdentityManagement\r\n{\r\n\r\n    address public ContractOwner;\r\n    \r\n    constructor() public {\r\n        ContractOwner = msg.sender;\r\n    }\r\n\r\n    struct UserInfo{\r\n\t\tstring FullName;\r\n\t\tstring EmailID;\r\n\t\tuint MobileNo;\r\n    }\r\n    \r\n    struct UserDL{\r\n\t\tstring DL_No;\r\n\t\tstring DL_Name;\r\n\t\tstring DL_DOB;\r\n\t\tstring DL_Hash;\r\n\t\tstring DL_Address;\r\n    }\r\n    struct DLRequest{\r\n\t\tstring RequestedBy;\r\n\t\tuint DL_No;\r\n\t\tuint DL_Name;\r\n\t\tuint DL_DOB;\r\n\t\tuint DL_Hash;\r\n\t\tuint DL_Address;\r\n\t\tuint DL_OverAll_Status;\r\n    }\r\n     /*\r\n            ApprovalStatus\r\n        -------------\r\n        0 --  default status\r\n        1 --  Requested\r\n        2 --  Approved\r\n        3 --  Rejected\r\n    */\r\n   \r\n  \r\n\r\n    mapping(address => UserInfo[]) UserMap;\r\n\tmapping(address => UserDL[]) UserDLMap;\r\n    mapping(address => DLRequest[]) DLRequestMap;\r\n    mapping(address=>string) public checkFI;\r\n\r\n\r\n\r\n    function addFI(address FIaddress,string memory FIname)public{\r\n        checkFI[address(FIaddress)]=FIname;\r\n    }\r\n\t\r\n\t\r\n    function AddUser(address UserAddress,string memory FullName,string memory EmailID,uint MobileNo) public\r\n    {\r\n        UserMap[UserAddress].push(UserInfo(FullName,EmailID,MobileNo));\r\n    }\r\n\r\n    function AddUserDL(address UserAddress,string memory DL_No, string memory DL_Name, string memory DL_DOB, string memory DL_Hash, string memory DL_Address)public\r\n    {\r\n        UserDLMap[UserAddress].push(UserDL(DL_No, DL_Name, DL_DOB, DL_Hash, DL_Address));\r\n    }\r\n\r\n     function AddDLRequest(address UserAddress,string memory RequestedBy, uint DL_No, uint DL_Name, uint DL_DOB, uint DL_Hash, uint DL_Address, uint DL_OverAll_Status)public\r\n    {\r\n        DLRequestMap[UserAddress].push(DLRequest(RequestedBy, DL_No, DL_Name, DL_DOB, DL_Hash, DL_Address, DL_OverAll_Status));\r\n    }\r\n     function ViewDLRequestLength(address UserAddress) public returns(uint)\r\n    {\r\n        return DLRequestMap[UserAddress].length;\r\n    }\r\n\r\n    function ViewDLRequestHeader(address UserAddress, uint RequestIndex) public returns(string memory RequestedBy, uint DL_OverAll_Status)\r\n    {\r\n        DLRequest memory ThisDLRequest=DLRequestMap[UserAddress][RequestIndex];\r\n        return (ThisDLRequest.RequestedBy, ThisDLRequest.DL_OverAll_Status);\r\n    }\r\n\r\n    function ViewDLRequestDetail(address UserAddress, uint RequestIndex) public returns(string memory RequestedBy, uint DL_No, uint DL_Name, uint DL_DOB, uint DL_Hash, uint DL_Address, uint DL_OverAll_Status)\r\n    {\r\n        DLRequest memory ThisDLRequest=DLRequestMap[UserAddress][RequestIndex];\r\n        return (ThisDLRequest.RequestedBy, ThisDLRequest.DL_No, ThisDLRequest.DL_Name, ThisDLRequest.DL_DOB, ThisDLRequest.DL_Hash, ThisDLRequest.DL_Address, ThisDLRequest.DL_OverAll_Status);\r\n    }\r\n\r\n    function UpdateRequestStatus(address UserAddress, uint RequestIndex, uint DL_No, uint DL_Name, uint DL_DOB, uint DL_Hash, uint DL_Address, uint DL_OverAll_Status) public\r\n    {\r\n        DLRequestMap[UserAddress][RequestIndex].DL_No=DL_No;\r\n\t\tDLRequestMap[UserAddress][RequestIndex].DL_Name=DL_Name;\r\n\t\tDLRequestMap[UserAddress][RequestIndex].DL_DOB=DL_DOB;\r\n\t\tDLRequestMap[UserAddress][RequestIndex].DL_Hash=DL_Hash;\r\n\t\tDLRequestMap[UserAddress][RequestIndex].DL_Address=DL_Address;\r\n\t\tDLRequestMap[UserAddress][RequestIndex].DL_OverAll_Status=DL_OverAll_Status;\r\n    }\r\n\r\n\r\n\r\n    function viewUser(address UserAddress, uint UserIndex) public returns(string memory FullName,string memory EmailID,uint MobileNo)\r\n    {\r\n        UserInfo memory ThisUser=UserMap[UserAddress][UserIndex];\r\n        return (ThisUser.FullName, ThisUser.EmailID, ThisUser.MobileNo);\r\n    }\r\n\r\n     function viewUserDL(address UserAddress, uint RequestIndex) public returns(uint DL_No_S, string memory DL_No_V, uint DL_Name_S, string memory DL_Name_V, uint DL_DOB_S, string memory DL_DOB_V, uint DL_Hash_S, string memory DL_Hash_V, uint DL_Address_S, string memory DL_Address_V)\r\n    {\r\n        UserDL memory ThisUserDL=UserDLMap[UserAddress][0];\r\n\t\tDLRequest memory ThisDLRequest=DLRequestMap[UserAddress][RequestIndex];\r\n        return (ThisDLRequest.DL_No, ThisUserDL.DL_No, ThisDLRequest.DL_Name, ThisUserDL.DL_Name, ThisDLRequest.DL_DOB, ThisUserDL.DL_DOB, ThisDLRequest.DL_Hash, ThisUserDL.DL_Hash, ThisDLRequest.DL_Address, ThisUserDL.DL_Address);\r\n    }\r\n\r\n}\r\n",
  "sourcePath": "E:/react/blocklance/smartcontract/contracts/IdentityManagemnet.sol",
  "compiler": {
    "name": "solc",
    "version": "0.5.16+commit.9c3226ce.Emscripten.clang"
  },
  "schemaVersion": "3.2.3",
  "updatedAt": "2020-09-22T18:31:06.733Z",
  "networkType": "ethereum",
  "devdoc": {
    "methods": {}
  },
  "userdoc": {
    "methods": {}
  }
}